S01100002E2E2F50726F746575732E73313966
S32D0000C000000000205DC2000011C3000017C300001DC3000023C3000029C3000000000000000000000000000073
S32D0000C028000000002FC3000035C30000000000003BC3000041C3000055DA000061DA00006DDA000079DA0000FA
S32D0000C05085DA000091DA00009DDA0000A9DA0000B5DA0000C1DA0000CDDA0000D9DA0000E5DA0000F1DA0000F0
S32D0000C078FDDA000009DB000015DB000021DB00002DDB000039DB000045DB000051DB00005DDB000069DB00000F
S32D0000C0A075DB000081DB00008DDB000099DB0000A5DB0000B1DB0000BDDB0000C9DB0000D5DB0000E1DB000036
S32D0000C0C8EDDB0000F9DB000005DC000011DC00001DDC000029DC000035DC000041DC00004DDC000059DC000056
S32D0000C0F065DC00000531010071DC00007DDC000089DC000095DC0000A1DC0000ADDC0000B9DC0000C5DC0000F2
S32D0000C118D1DC0000DDDC0000E9DC0000F5DC000001DD00000DDD000019DD000025DD000031DD00003DDD000015
S32D0000C14049DD000055DD000061DD00006DDD00000909010079DD000085DD000091DD00009DDD0000A9DD0000B8
S32D0000C168B5DD0000C1DD0000CDDD0000D9DD0000E5DD0000F1DD0000FDDD000009DE000015DE000021DE0000D6
S32D0000C1902DDE000039DE000045DE000001050100C903010065040100D9D70000A105010051DE00005DDE00003D
S32D0000C1B869DE0000C8630100000000205C150000C86301000000FF1F000000005C1500208C0400000000FF1FCC
S32D0000C1E00000000080B489B000AFF860B9607A60BB68FB61FB68BB6100237B617A697B689A420BD2BA69131DFB
S32D0000C208BB61FB69191DF96112681A607B6904337B61EFE700BF2437BD4680BC704780B485B000AF786039609E
S32D0000C2307B68FB600023BB60BA683B689A4208D2FB681A1DFA6000221A60BB680433BB60F2E700BF1437BD46FE
S32D0000C25880BC704780B586B000AF72B6234B4CF220521A80214B4DF628121A80204B4FF4E9721A801F4B7B615F
S32D0000C2807B691F4A934214D27B691A1D7A611B683B617B691A1D7A611B68FB607B691A1D7A611B68BB60BA68E9
S32D0000C2A8F9683869FFF79AFFE6E77B69134A93420ED27B691A1D7A611B68FB607B691A1D7A611B68BB60B9688B
S32D0000C2D0F868FFF7A8FFECE70B4B7B600B4A7B681A6008F0DFFE62B601F03EFB01F00CFAFEE700BF0E20054068
S32D0000C2F800200540BCC10000D4C10000E4C1000008ED00E000C0000080B400AFFEE780B400AFFEE780B400AFF4
S32D0000C320FEE780B400AFFEE780B400AFFEE780B400AFFEE780B400AFFEE780B400AFFEE780B400AFFEE780B426
S32D0000C34800AFFEE7FFFFFFFFFFFFFFFFFFFFFFFFFFFFFFFFFFFFFFFFFFFFFFFFFFFFFFFFFFFFFFFFFFFFFFFF57
S32D0000C370FFFFFFFFFFFFFFFFFFFFFFFFFFFFFFFFFFFFFFFFFFFFFFFFFFFFFFFFFFFFFFFFFFFFFFFFFFFFFFFFC7
S32D0000C398FFFFFFFFFFFFFFFFFFFFFFFFFFFFFFFFFFFFFFFFFFFFFFFFFFFFFFFFFFFFFFFFFFFFFFFFFFFFFFFF9F
S32D0000C3C0FFFFFFFFFFFFFFFFFFFFFFFFFFFFFFFFFFFFFFFFFFFFFFFFFFFFFFFFFFFFFFFFFFFFFFFFFFFFFFFF77
S32D0000C3E8FFFFFFFFFFFFFFFFFFFFFFFFFFFFFFFFFFFFFFFFFFFFFFFFFFFFFFFFFFFFFFFFFFFFFFFFFEFFFFFF50
S32D0000C44010B5054C237833B9044B13B10448AFF300800123237010BD5C1500200000000010C4000008B5034BBC
S32D0000C4681BB103490348AFF3008008BD000000006015002010C4000080B483B000AF78607B6823F0004318466E
S32D0000C4900C37BD4680BC7047F0B595B004AFF860B9607A6003F070FC02460B461046194608F08EFA0346FB6389
S32D0000C4B84FF000037B63FB6B3B634FF00003FB624FF00003BB624FF000037B624FF000033B62FB6BFB614FF035
S32D0000C4E00003BB614FF000037B614FF000033B61474804F0B3F8474804F0B0F84649B86808F0C4FB0346BB63ED
S32D0000C508414804F095F80446404804F091F803462344184607F00CFF4FF000024FF0804308F09AF802460B4636
S32D0000C53014461D46B86B07F011FF02460B4601210E462046294608F0D3F90346002B01D100231E46F3B2002BB1
S32D0000C55847D02BA1D1E9000103F0ECFB786808F03DFB044607F1300107F13402264807F12403029307F1280347
S32D0000C580019307F12C0300930B46F968007800F09FFA03461946204608F078FB034619461E4801F0E9FC78684F
S32D0000C5A808F01CFB044607F11C0107F12002174807F11003029307F11403019307F1180300930B46F96800786B
S32D0000C5D000F07EFA03461946204608F057FB034619460F4801F0C8FC8EE70C4801F082FC0B4801F07FFC4FF093
S32D0000C5F800000A4903F09EFB00BF4437BD46F0BD9A9999999999B93F7C1500208015002000002242841500203A
S32D0000C6208C1500200000D03FB0B594B004AF387339727A603B6003F0A7FB02460B461046194608F0C5F9034613
S32D0000C648FB634FF00003BB63FB6B7B634FF000033B634FF00003FB624FF00003BB624FF000037B62FB6B3B62C2
S32D0000C6704FF00003FB614FF00003BB614FF000037B619B4803F0EAFF9A4803F0E7FF07F10C03184603F09EFC16
S32D0000C6980346002B07D107F10803184603F096FC0346002B16D003F06BFB04460D46F86B07F050FE4FF0000209
S32D0000C6C08D4B07F0EDFC02460B462046294608F00FF90346002B01D0012300E00023002B00F0F28080A1D1E952
S32D0000C6E8000103F027FB07F10C03184603F06EFC034683F00103DBB2002B49D0386808F06DFA04464FF0804172
S32D0000C710786808F06FFB03461D4607F1340107F13802734807F12803029307F12C03019307F1300300930B4671
S32D0000C7382946007800F0C8F903461946204608F0A1FA034619466B4801F012FC386808F045FA044607F1200106
S32D0000C76007F12402634807F11403029307F11803019307F11C0300930B467968007800F0A7F9034619462046A5
S32D0000C78808F080FA034619465B4801F0F1FB7AE707F10803184603F019FC034683F00103DBB2002B49D03868EE
S32D0000C7B008F018FA044607F1340107F138024C4807F12803029307F12C03019307F1300300930B467968007839
S32D0000C7D800F07AF903461946204608F053FA03461946444801F0C4FB386808F0F7F904464FF08041786808F0EF
S32D0000C800F9FA03461D4607F1200107F12402394807F11403029307F11803019307F11C0300930B462946007886
S32D0000C82800F052F903461946204608F02BFA03461946314801F09CFB25E7386808F0CEF9044607F1340107F1F9
S32D0000C8503802274807F12803029307F12C03019307F1300300930B467968007800F030F903461946204608F017
S32D0000C87809FA034619461F4801F07AFB386808F0ADF9044607F1200107F12402174807F11403029307F1180345
S32D0000C8A0019307F11C0300930B467968007800F00FF903461946204608F0E8F9034619460F4801F059FBE2E697
S32D0000C8C80C4801F013FB0C4801F010FB4FF000000A4903F02FFA00BF4037BD46B0BD00BF9A9999999999B93FFD
S32D0000C8F07C1500208015002000001440841500208C1500200000D03FF0B587B000AFF860B9607A60364803F090
S32D0000C918A1FE364803F09EFEB86807F009FD30A3D3E9002307F06EFD02460B461046194608F04AF803467B6167
S32D0000C940FB685B427A6802FB03F3184608F04AF903461946284801F00FFBFB687A6802FB03F3184608F03EF983
S32D0000C96803461946234801F003FB1F4803F060FE04461E4803F05CFE03462344184607F0D7FC4FF000024FF092
S32D0000C990804307F065FE02460B4614461D46786907F0DCFC02460B4601210E462046294607F09EFF0346002B6A
S32D0000C9B801D100231E46F3B2002B00D0D5E70C4801F094FA0B4801F091FA4FF000000A4903F0B0F900BF1C37BA
S32D0000C9E0BD46F0BDAFF30080D7A3703D0AD701407C15002080150020841500208C1500200000D03F000000001F
S32D0000CA0890B587B000AF07F1080484E803003A713B603B1D184603F01DFEB86A07F088FC25A3D3E9002307F01D
S32D0000CA30EDFC02460B461046194602460B4607F02FFB02460B461046194607F0C1FF03467B613B68FA6A02FBB9
S32D0000CA5803F3184608F0C2F8024607F108031146184601F085FA3B1D184603F0E1FD0346184608F0B3F8034620
S32D0000CA80012214461946786908F0BCFA0346002B01D100231C46E3B2002B00D0E7E707F10803184601F026FA82
S32D0000CAA84FF00000064903F045F900BF1C37BD4690BD00BFAFF30080D7A3703D0AD701400000D03F0000000006
S32D0000CAD0B0B590B000AF3873B9607A603B6007F10C03184603F0A8FD0346184608F07AF80346FB637B681B6890
S32D0000CAF81946F86B07F0BCFF0346BB637B68FA6B1A6003F03DF902460B461046194607F05BFF03467B633B68E1
S32D0000CB201B681946786B07F0A7FF03463B633B687A6B1A60B86B07F011FC37A3D3E9002307F064FC02460B46CC
S32D0000CB4814461D46386B07F005FC02460B462046294607F081FD02460B461046194607F033FF0346FB62F96A04
S32D0000CB70B86807F081FF0346BB623B6D1B681946B86A07F079FF03467B623B6DBA6A1A607B6D1B68B96A184627
S32D0000CB9807F070FF03461A467B6D1A604FF07D51B86A08F06FF803463B627B6D1B68184607F0D0FB18A3D3E988
S32D0000CBC0002307F023FC02460B461046194607F0FFFE0346FB614FF07A51786A08F056F80346BB61BB6D1B68E5
S32D0000CBE8396A184607F046FF0346F969184607F041FF03461946B86907F03CFF03467B61BB6D7A691A607B6919
S32D0000CC1018464037BD46B0BDE147C2FCB048993F9A9999999999A93F80B582B000AF78603960786807F0D6FF49
S32D0000CC38034619460C4801F09BF97B685B42184607F0CCFF03461946084801F091F9386803F050F8044801F022
S32D0000CC6049F9044801F046F900BF0837BD4680BD8C15002084150020B0B586B000AF7860654807F09FF87861FA
S32D0000CC884FF000033B614FF00003FB6003F078F802460B461046194607F096FE0346BB604FF00001786908F04A
S32D0000CCB09FF90346002B44D05849786908F08EF90346002B3DD07968786907F0D5FE03461846FFF7D5FB034672
S32D0000CCD84FF08041184608F091F90346002B2CD07968786907F0C4FE03461846FFF7C4FB03461946474807F0D9
S32D0000CD00BBFE03464FF08041184608F07BF90346002B16D003F038F804460D46B86807F01DFB4FF000023E4B26
S32D0000CD2807F0BAF902460B462046294607F0DCFD0346002B01D0012300E00023002B5DD07968786907F094FEE6
S32D0000CD5003461C467969786807F08EFE03461946204608F04FF90346002B18D07968786907F082FE034618463B
S32D0000CD78FFF782FB03461946264807F079FE03463B617968786907F073FE03461846FFF773FBF86017E079684C
S32D0000CDA0786907F069FE03461846FFF769FB38617968786907F060FE03461846FFF760FB03461946154807F081
S32D0000CDC857FE0346FB60F968386908F0F9F80346002B04D011490F20FFF722FF04E00F496FF00E00FFF71CFFB7
S32D0000CDF007A1D1E9000102F0A1FF074806F0E2FF786151E700BF1837BD46B0BDAFF300809A9999999999B93FBA
S32D0000CE18001900200000B44300001440CDCCCC3D80B500AF4FF4FA710C4803F033FF40F6C4110A4803F04BFF21
S32D0000CE4040F2EE21084803F029FF40F6CA01064803F041FF002000F009F8822000F018F800BF80BD941500201E
S32D0000CE68A015002080B582B000AF7860786807F0B5FE03461946034803F046FF00BF0837BD4680BD941500201D
S32D0000CE9080B582B000AF7860786807F0A3FE03461946034803F034FF00BF0837BD4680BDA015002080B584B079
S32D0000CEB800AF78600023FB604FF07C51786808F07FF80346002B07D00123FB604FF47F01064804F022FB03E01D
S32D0000CEE0FF21044804F01DFBFB6818461037BD4680BD00BF98180020B0B596B004AF387339727A603B6002F0BA
S32D0000CF083FFF02460B461046194607F05DFD0346FB634FF00003BB63FB6B7B634FF000033B634FF00003FB6254
S32D0000CF304FF00003BB624FF000037B62FB6B3B624FF00003FB614FF00003BB614FF000037B61A54803F0A4FBB9
S32D0000CF5878647B6C3B64A34803F07CFBA24803F079FB07F10C03184603F030F80346002B07D107F10803184676
S32D0000CF8003F028F80346002B16D002F0FDFE04460D46F86B07F0E2F94FF00002954B07F07FF802460B462046C9
S32D0000CFA8294607F0A1FC0346002B01D0012300E00023002B00F0FF80796C386C08F01EF80346002B01D07B6C8F
S32D0000CFD03B6483A1D1E9000102F0B0FE07F10C03184602F0F7FF034683F00103DBB2002B49D0386807F0F6FDAD
S32D0000CFF804464FF08041786807F0F8FE03461D4607F1340107F13802764807F12803029307F12C03019307F1C0
S32D0000D020300300930B4629460078FFF751FD03461946204607F02AFE034619466E4800F09BFF386807F0CEFD29
S32D0000D048044607F1200107F12402674807F11403029307F11803019307F11C0300930B4679680078FFF730FDC8
S32D0000D07003461946204607F009FE034619465F4800F07AFF96E007F10803184602F0A2FF034683F00103DBB217
S32D0000D098002B49D0386807F0A1FD044607F1340107F138024F4807F12803029307F12C03019307F13003009380
S32D0000D0C00B4679680078FFF703FD03461946204607F0DCFD03461946474800F04DFF386807F080FD04464FF0B4
S32D0000D0E88041786807F082FE03461D4607F1200107F124023C4807F11403029307F11803019307F11C030093A6
S32D0000D1100B4629460078FFF7DBFC03461946204607F0B4FD03461946344800F025FF41E0386807F057FD0446A8
S32D0000D13807F1340107F138022A4807F12803029307F12C03019307F1300300930B4679680078FFF7B9FC034629
S32D0000D1601946204607F092FD03461946224800F003FF386807F036FD044607F1200107F124021B4807F1140395
S32D0000D188029307F11803019307F11C0300930B4679680078FFF798FC03461946204607F071FD034619461348E9
S32D0000D1B000F0E2FE0C4803F073FA7864D5E60E4800F098FE0D4800F095FE4FF000000C4902F0B4FD3B6C184646
S32D0000D1D84837BD46B0BD00BF9A9999999999B93F781500207C1500208015002000001440841500208C1500200B
S32D0000D2000000D03F00000000B0B588B002AFFFF70BFE5F4806F07CFB4FF47F015D4804F080F93A463B1D194684
S32D0000D2285A4804F04DFA034683F00103DBB2002B00D0F2E73A463B1D1946544804F040FA0346002B00D0F5E7B9
S32D0000D2504DA1D1E9000102F071FD4FF400414D4804F05FF902F090FD02460B461046194607F0AEFB03467B61B0
S32D0000D278474803F011FA03464FF07E51184607F0BDFE0346002B16D002F07AFD04460D46786907F05FF84FF0C6
S32D0000D2A000023E4B06F0FCFE02460B462046294607F01EFB0346002B01D0012300E00023002B00D0D8E73248C7
S32D0000D2C806F042FD3861012233493448FFF7E0F84FF0FF322D211920FFF712FB3048FFF7C7FC01224FF0814132
S32D0000D2F02C48FFF7D1F80A20FFF7B8FD4B20FFF7C7FD4FF00000294902F018FD6020FFF7BFFD4FF0FF324FF04A
S32D0000D3187F512248FFF7BCF84FF0FF325A211920FFF7EEFA2048FFF7A3FC3B69002B12D14FF0FF324FF07E51D4
S32D0000D3401848FFF7A9F81B4A1B49012301935A2300931923127803C9FFF756FB44E03B69012B2DD14FF0FF32FC
S32D0000D36814490E48FFF794F8104A1149012301935A2300931923127803C9FFF741FB2FE09A9999999999B93F84
S32D0000D39000190020981800207815002000003E400000404100007041000034430000F03F0000B4427C150020BC
S32D0000D3B88415002000009040B949BA484FF0FF33B94A09780078FFF72BF9B84AB849012301935A23009319232C
S32D0000D3E0127803C9FFF710FB4FF00000FFF744FC01224FF07E51B148FFF74EF85F20FFF735FD4FF0FF324FF097
S32D0000D4087F51AC48FFF744F84FF00000FFF730FC7D20FFF727FD01224FF07F51A548FFF737F84FF00000A44978
S32D0000D43002F084FC4420FFF719FD4FF00000A14902F07CFC7D20FFF711FD4FF0FF324FF07E519A48FFF720F84A
S32D0000D4589B4A9C494FF0FF3301935A2300931923127803C9FFF7CCFA9748FFF701FC8C498C484FF0FF338C4AB7
S32D0000D48009780078FFF7D0F801224FF07E518B48FFF702F801225A211920FFF735FA8D48FFF7EAFB01228C492F
S32D0000D4A88448FEF7F5FF4FF0FF325A211920FFF727FA8548FFF7DCFB79497A484FF0FF33794A09780078FFF725
S32D0000D4D0ABF8012281497948FEF7DEFF01225A211920FFF711FA7B48FFF7C6FB4FF0FF324FF082417148FEF799
S32D0000D4F8CFFF012278496F48FEF7CAFF01222D211920FFF7FDF97548FFF7B2FB744975480123654A09780078A3
S32D0000D520FFF7EAFCF860F868FFF7C4FCB8604FF0FF326F496148FEF7AFFF7D20FFF796FC6020FFF7A5FC0122A8
S32D0000D548E1211920FFF7DCF95F48FFF791FB01224FF07E515448FEF79BFF0020FFF782FC4FF00000614902F0BB
S32D0000D570E5FB0A20FFF77AFCBB68002B2BD14FF0FF324FF07E514D48FEF786FF0020FFF76DFC4FF0FF325A21D6
S32D0000D5981920FFF7B5F94FF00000FFF769FB4FF0FF324C494348FEF773FF4FF00000FFF75FFB01224E493F4828
S32D0000D5C0FEF76AFF01225A211920FFF79DF94048FFF752FB27E03C4A3C49012301935A2300931923127803C945
S32D0000D5E8FFF70EFA3948FFF743FB0020FFF73AFC012238492F48FEF74BFF3448FFF738FB4FF0FF323A492B48B1
S32D0000D610FEF742FF4FF0FF325A211920FFF774F92B48FFF729FB304930480123204A09780078FEF7F9FF244ACF
S32D0000D63824494FF0FF3301935A2300931923127803C9FFF7DDF94FF00000FFF711FB012228491848FEF71CFF9F
S32D0000D6604FF00000FFF708FB01222D210F20FFF74BF94FF0FF3222491048FEF70DFF01222D210F20FFF740F987
S32D0000D6881E48FFF7F5FA164916480123064A09780078FEF7C5FF00BF1837BD46B0BD00BFB0150020AC15002043
S32D0000D6B0000010417C1500208415002000007041000014400000F03F801500208C1500200000B442000034437A
S32D0000D6D8000088410000F0400000484100006143B8150020B41500200000D0400000F83F000060410000F0410F
S32D0000D7000000A0400000344280B500AFFFF77CFD0023184680BD000080B582B000AF786039607B68012B32D1FB
S32D0000D7283B684FF6FF7293422DD10021184802F0A3FF0921174802F0CDFC0821164802F0C9FC164A0021164831
S32D0000D75000F092FB134A0121144800F08DFB0121134803F07FFA0021124803F07BFA1121114802F053FB102113
S32D0000D778104802F04FFB13210F4802F04BFB12210E4802F047FB00BF0837BD4680BD00BF781500207C15002014
S32D0000D7A08015002000001041841500208C15002094150020A0150020AC150020B0150020B4150020B8150020A1
S32D0000D7C880B500AF4FF6FF710120FFF7A1FF80BD80B500AF0F4BD3F8A03003F48053002B14BF01230023DBB231
S32D0000D7F0002B10D0094BD3F8A030084A23F48053C2F8A030064806F0BFFB064B1B68054A23F40053136000BF8E
S32D0000D81880BD00BF00C0044020190020C0F00F4080B400AF124B4FF480725A63114B5B69104A43F400535361A0
S32D0000D8400E4B1B680D4A43F4005313600A4B0C4A1A630C4BD3F888310A4A43F08063C2F88831084B9B68074A03
S32D0000D86843F08063936000BFBD4680BC704700BF00C00440C0F00F4003010A0000E100E080B400AF334B0022C0
S32D0000D8905A70324B98221A70304B9B79DBB203F01003002B14BF01230023DBB2002B00D0F2E72A4B9B79DBB201
S32D0000D8B89B08DBB203F00303022B14BF01230023DBB2002B00D0F0E7224B18221A71214B00225A71204B03F585
S32D0000D8E080531A461F4B53641C4B54225A711B4B9B79DBB203F02003002B0CBF01230023DBB2002B00D0F2E763
S32D0000D908144B9B79DBB203F04003002B0CBF01230023DBB2002B00D0F2E70E4B1B78DBB20C4A03F03F03DBB28C
S32D0000D93013700A4B9B79DBB29B08DBB203F00303032B14BF01230023DBB2002B00D0F0E700231846BD4680BCC0
S32D0000D958704700BF00400640007004400000130180B500AF314B03F580539B6B2F4A43F4785302F58052936372
S32D0000D980FFF752FFFFF780FF2B4B58221A602A4B1B684FF47A7202FB03F3284A1360274B1B681A46234B03F599
S32D0000D9A880535B6C1B0E03F00F030133B2FBF3F31A46214B1A601D4B03F58053DB6B1B4A43F0225302F580522D
S32D0000D9D0D363184B03F580531B6B164A43F0006302F580521363174B4FF480721A61642002F05AF8134B5B690E
S32D0000D9F8124A23F010035361104B00221A600F4B10225A610E4803F02BFC02F02DFF02F08BFF0C4802F0A6F89F
S32D0000DA200B4806F005FB4FF4FA6002F051F900BF80BD00BF00700440E4170020E0170020E817002000D00340E3
S32D0000DA4898180020DC1700209019002080B500AFFEF775FC00BF80BD80B500AFFEF76FFC00BF80BD80B500AF9A
S32D0000DA70FEF769FC00BF80BD80B500AFFEF763FC00BF80BD80B500AFFEF75DFC00BF80BD80B500AFFEF757FCA4
S32D0000DA9800BF80BD80B500AFFEF751FC00BF80BD80B500AFFEF74BFC00BF80BD80B500AFFEF745FC00BF80BD10
S32D0000DAC080B500AFFEF73FFC00BF80BD80B500AFFEF739FC00BF80BD80B500AFFEF733FC00BF80BD80B500AF36
S32D0000DAE8FEF72DFC00BF80BD80B500AFFEF727FC00BF80BD80B500AFFEF721FC00BF80BD80B500AFFEF71BFC1C
S32D0000DB1000BF80BD80B500AFFEF715FC00BF80BD80B500AFFEF70FFC00BF80BD80B500AFFEF709FC00BF80BD4B
S32D0000DB3880B500AFFEF703FC00BF80BD80B500AFFEF7FDFB00BF80BD80B500AFFEF7F7FB00BF80BD80B500AF73
S32D0000DB60FEF7F1FB00BF80BD80B500AFFEF7EBFB00BF80BD80B500AFFEF7E5FB00BF80BD80B500AFFEF7DFFB97
S32D0000DB8800BF80BD80B500AFFEF7D9FB00BF80BD80B500AFFEF7D3FB00BF80BD80B500AFFEF7CDFB00BF80BD8A
S32D0000DBB080B500AFFEF7C7FB00BF80BD80B500AFFEF7C1FB00BF80BD80B500AFFEF7BBFB00BF80BD80B500AFB0
S32D0000DBD8FEF7B5FB00BF80BD80B500AFFEF7AFFB00BF80BD80B500AFFEF7A9FB00BF80BD80B500AFFEF7A3FB0F
S32D0000DC0000BF80BD80B500AFFEF79DFB00BF80BD80B500AFFEF797FB00BF80BD80B500AFFEF791FB00BF80BDC5
S32D0000DC2880B500AFFEF78BFB00BF80BD80B500AFFEF785FB00BF80BD80B500AFFEF77FFB00BF80BD80B500AFEB
S32D0000DC50FEF779FB00BF80BD80B500AFFEF773FB00BF80BD80B500AFFEF76DFB00BF80BD80B500AFFEF767FB86
S32D0000DC7800BF80BD80B500AFFEF761FB00BF80BD80B500AFFEF75BFB00BF80BD80B500AFFEF755FB00BF80BD01
S32D0000DCA080B500AFFEF74FFB00BF80BD80B500AFFEF749FB00BF80BD80B500AFFEF743FB00BF80BD80B500AF27
S32D0000DCC8FEF73DFB00BF80BD80B500AFFEF737FB00BF80BD80B500AFFEF731FB00BF80BD80B500AFFEF72BFBFE
S32D0000DCF000BF80BD80B500AFFEF725FB00BF80BD80B500AFFEF71FFB00BF80BD80B500AFFEF719FB00BF80BD3D
S32D0000DD1880B500AFFEF713FB00BF80BD80B500AFFEF70DFB00BF80BD80B500AFFEF707FB00BF80BD80B500AF62
S32D0000DD40FEF701FB00BF80BD80B500AFFEF7FBFA00BF80BD80B500AFFEF7F5FA00BF80BD80B500AFFEF7EFFA78
S32D0000DD6800BF80BD80B500AFFEF7E9FA00BF80BD80B500AFFEF7E3FA00BF80BD80B500AFFEF7DDFA00BF80BD7B
S32D0000DD9080B500AFFEF7D7FA00BF80BD80B500AFFEF7D1FA00BF80BD80B500AFFEF7CBFA00BF80BD80B500AFA1
S32D0000DDB8FEF7C5FA00BF80BD80B500AFFEF7BFFA00BF80BD80B500AFFEF7B9FA00BF80BD80B500AFFEF7B3FAF1
S32D0000DDE000BF80BD80B500AFFEF7ADFA00BF80BD80B500AFFEF7A7FA00BF80BD80B500AFFEF7A1FA00BF80BDB7
S32D0000DE0880B500AFFEF79BFA00BF80BD80B500AFFEF795FA00BF80BD80B500AFFEF78FFA00BF80BD80B500AFDC
S32D0000DE30FEF789FA00BF80BD80B500AFFEF783FA00BF80BD80B500AFFEF77DFA00BF80BD80B500AFFEF777FA68
S32D0000DE5800BF80BD80B500AFFEF771FA00BF80BD80B500AFFEF76BFA00BF80BD0000000080B584B000AFF860B6
S32D0000DE800B467A60FB72FB68FA7A1A71FB6800225A711749786807F0B5F80346002B02D0134B7B600AE04FF09E
S32D0000DEA87E51786807F096F80346002B02D04FF07E537B60786806F04DFA09A3D3E9002306F0A0FA02460B4616
S32D0000DED01046194606F07CFD0246FB681A60FB6818461037BD4680BDABAAAAAAAAAA20400000404180B582B04E
S32D0000DEF800AF78607B685B79002B09D07B6800225A717B6819791E230022034801F064FE00BF0837BD4680BD36
S32D0000DF20DC17002080B584B000AF786039603B687F2B02DD7F23FB7308E03B6813F1800F02DA8023FB7301E00F
S32D0000DF483B68FB737B685B79FA7B9A4209D07B68FA7B5A717B681979FA7B1E23034801F03BFE00BF1037BD46ED
S32D0000DF7080BD00BFDC170020B0B584B000AF786039603749386807F01FF80346002B02D0334B3B6008E03349CA
S32D0000DF98386807F033F80346002B01D02F4B3B60386806F0D7F904460D467B681B68184606F0D0F94FF0000278
S32D0000DFC0294B06F04DFB02460B462046294606F01DFA02460B461046194606F0F9FC03463B604FF00001386809
S32D0000DFE807F002F80346002B10D0386806F0B2F917A3D3E9002306F005FA02460B461046194606F099FC0346D5
S32D0000E010FB6018E0386806F0A1F94FF00002134B06F0F4F902460B46104619464FF000020D4B06F015FB0246A8
S32D0000E0380B461046194606F07FFC0346FB60F9687868FFF76BFF00BF1037BD46B0BD00BF52B81E85EB51F43FAD
S32D0000E0600000C8C20000C842000059400000604080B483B000AF03460A46FB711346BB71BB79002B03D1134B94
S32D0000E08800221A7002E0114B01221A703823FB710E4B1A78FB791343FB710D4B9B78DBB20B4A43F01003DBB2CB
S32D0000E0B09370094B9B78DBB2074A43F02003DBB29370054AFB79137100BF0C37BD4680BC704700BFB915002028
S32D0000E0D80060064080B483B000AF01237B607B68312B04DC00BF7B6801337B60F7E700BF0C37BD4680BC7047B9
S32D0000E10080B582B000AF03460A46FB711346BB71134B1B7800211846FFF7AAFF00F024F8104AFB79137100F0F4
S32D0000E1281FF80E4ABB79137100F01AF80B4B9B78DBB20A4A23F02003DBB29370074B9B78DBB2064A23F0100328
S32D0000E150DBB29370FFF7C2FF00BF0837BD4680BDBA1500200060064080B483B000AF174B1B78002B24D1002339
S32D0000E1787B60154BDB78DBB203F00203002B0CBF01230023DBB2002B0DD07B6842F21072934203DD0B4B0122CD
S32D0000E1A01A7004E07B6801337B6000BFE5E7084BDB78DBB2064A43F00203DBB2D37000E000BF0C37BD4680BCBA
S32D0000E1C8704700BFBB1500200060064080B582B000AF0346FB71FB79184600F05FF800BF0837BD4680BD80B5C6
S32D0000E1F082B000AF03460A46FB711346BB7100F035F8FB795B00DBB21846FFF7E3FFBB791846FFF7DFFF00F091
S32D0000E21837F800BF0837BD4680BD80B500AFFF2000F03CF80346184680BD80B584B000AF0346FB7100F016F895
S32D0000E240FB795B005BB243F001035BB2DBB21846FFF7C0FFFFF7E5FF0346FB7300F014F8FB7B18461037BD4645
S32D0000E26880BD000080B400AF044B9B68034A43F48013936000BFBD4680BC704740F00F4080B400AF044B5B68E3
S32D0000E290034A43F48013536000BFBD4680BC704740F00F4080B485B000AF0346FB710023BB73164BDB6A03F0AB
S32D0000E2B80043012B0CBF01230023DBB2002B03D0FB7B0133FB73F0E70E4BDB6A0D4A43F00043D3620B4AFB79D4
S32D0000E2E053630A4BDB6A03F40033002B0CBF01230023DBB2002B00D0F3E7044B9B6BBB73BB7B18461437BD4692
S32D0000E30880BC704700C00A4080B582B000AF204B03F580531B6B1E4A43F4805302F5805213631C4B4FF48072CB
S32D0000E3301A651B4B5B691A4A43F480135361FFF7A3FF164B4FF400725A65144B4FF400729A65124B4FF40072A2
S32D0000E358DA65124B124A1A60104B124ADA6000237B607B68092B06DCFF20FFF72FFF7B6801337B60F5E704A187
S32D0000E380D1E9000101F0DAFC00BF0837BD4680BD9A9999999999B93F0070044000A0044040F00F4000C00A40FF
S32D0000E3A8000C00800500003E90B486B000AFF860B9607A60FB68534A93420AD1524B03F580535B6B504A43F455
S32D0000E3D0806302F58052536345E0FB684D4A93420AD14B4B03F580535B6B494A43F4006302F58052536336E005
S32D0000E3F8FB68474A93420AD1434B03F580535B6B414A43F4805302F58052536327E0FB68404A93420AD13C4BF5
S32D0000E42003F580535B6B3A4A43F4005302F58052536318E0FB683A4A93420AD1344B03F580539B6A324A43F41F
S32D0000E448806302F58052936209E02F4B03F580539B6A2D4A43F4006302F580529362FB68DB78DBB223F00C039E
S32D0000E470DAB2FB68DA70FB6800229A70BB684FF47A7203FB02F27B681B0192FBF3F39CB2FB681B78DBB223F01C
S32D0000E4981F03FB75230A9BB2DBB203F01F03DAB2FB7D1343DAB2FB681A70E2B2FB685A70BB684FF4FA4203FB74
S32D0000E4C002F27B681B0192FBF3F39AB263019BB2D31A9CB2FB689B7ADBB223F01F03FB75E3B203F01F03DAB2B0
S32D0000E4E8FB7D1343DAB2FB689A72FB68DB78DBB243F00C03DAB2FB68DA7000BF1837BD4690BC704700A0064085
S32D0000E5100070044000B0064000C0064000D0064000A00E4080B483B000AF78607B681B79DBB203F02003002BF6
S32D0000E5380CBF01230023DBB2002B00D0F2E77B68DB79DBB218460C37BD4680BC704780B483B000AF78600B46A8
S32D0000E560FB707B681B79DBB25BB2DB43DBB2DB09DBB2002B00D0F4E77B68FA78DA7100BF0C37BD4680BC704787
S32D0000E58880B487B000AFF860B9607A60FB687B617B685A1E7A60002B14BF01230023DBB2002B06D07B695A1C5F
S32D0000E5B07A61BA68D2B21A70EEE700BF1C37BD4680BC704780B584B000AF786039607B681B6BFB60FA683B6803
S32D0000E5D89A4252D07B681B79002B35D07B6858787B6803F134010123FA6801F0F7F80346002B14BF01230023BD
S32D0000E600DBB2002B01D001233CE07B6800221A717B685A6A7B681B6A1344FA689A4217D27B68DB78FB72FB7AEE
S32D0000E628012B11D97B681B6AFA681344FB607B6858787B6803F134010123FA6801F0CEF8FB7A013BFB72EAE747
S32D0000E6503B68002B15D07B6858787B6803F1340101233A6800F0DAFF0346002B14BF01230023DBB2002B01D084
S32D0000E678012303E07B683A681A63002318461037BD4680BD80B584B000AF786000217868FFF794FF0346FB7332
S32D0000E6A0FB7B002B40F093807B681B78032B7DD17B685B79002B79D07B6800221A637B6834334FF400720021A9
S32D0000E6C81846FFF75DFF7B68552283F832227B68AA2283F833227B68522283F834207B68522283F835207B689C
S32D0000E6F0612283F836207B68412283F837207B68722283F818227B68722283F819227B68412283F81A227B6857
S32D0000E718612283F81B227B681B69DAB27B6883F81C227B681B699BB21B0A9BB2DAB27B6883F81D227B681B6953
S32D0000E7401B0CDAB27B6883F81E227B681B691B0EDAB27B6883F81F227B68DB68DAB27B6883F820227B68DB6827
S32D0000E7689BB21B0A9BB2DAB27B6883F821227B68DB681B0CDAB27B6883F822227B68DB681B0EDAB27B6883F8E3
S32D0000E79023227B6858787B6803F134017B685A69012301F01FF87B6800225A717B685B7800220021184601F06D
S32D0000E7B8E1F80346002B14BF01230023DBB2002B01D00123FB73FB7B18461037BD4680BD80B582B000AF786068
S32D0000E7E00B467B807B68002B08D07B681B78002B04D07B68DB887A889A4201D0092311E07B685B78184601F04D
S32D0000E8083BF9034603F00103002B14BF01230023DBB2002B01D0032300E0002318460837BD4680BD80B586B02F
S32D0000E83000AF78607B681A687B689B8819461046FFF7CAFF0346FB75FB7D002B40F0AC807B689B7903F020038F
S32D0000E858002B00F0A5807B689B7903F04003002B1BD07B681B6858787B6803F128017B689A69012300F0B2FF2E
S32D0000E8800346002B14BF01230023DBB2002B01D001238AE07B689B7923F04003DAB27B689A717B681A687B68B6
S32D0000E8A8DB6919461046FFF789FE0346FB75FB7D002B75D17B681B6A3B613B690B331A783B690B3342F020027C
S32D0000E8D0D2B21A707B68DA683B691C33D2B21A707B68DB689BB21B0A9AB23B691D33D2B21A707B68DB681A0CB4
S32D0000E8F83B691E33D2B21A707B68DB681A0E3B691F33D2B21A707B681A693B691A33D2B21A707B681B699BB284
S32D0000E9201B0A9AB23B691B33D2B21A707B681B691A0C3B691433D2B21A707B681B691B0C9BB21B0A9AB23B69E2
S32D0000E9481533D2B21A700023FB603B691633FA68D2B21A70FB689BB21B0A9AB23B691733D2B21A70FB681A0CCA
S32D0000E9703B691833D2B21A70FB681A0E3B691933D2B21A707B689B7923F02003DAB27B689A717B681B680122C3
S32D0000E9981A717B681B681846FFF774FE0346FB75FB7D18461837BD4680BD80B584B000AF78607868FFF736FF81
S32D0000E9C00346FB73FB7B002B02D17B6800221A60FB7B18461037BD4680BD000080B588B000AF786039608023F4
S32D0000E9E83B610F23FB604FF0FF337B610223FB61FB69B3F5807F23D80123BB61BB69102B1AD8FB69BA6902FBEF
S32D0000EA1003F33A6803FB02F27B68D31ABB60BB68002B09DBBB687A699A4205D9BB687B61FB693B61BB69FB60F3
S32D0000EA38BB690133BB61E1E7FB695B00FB61D7E71D4BDB6A1C4A23F00803D3621A4BDB6A23F47F2323F47F63D9
S32D0000EA60BB613B695B081B029AB2FB68013B1B01DBB21A43BB691343114A43F46023D3620F4B5B6A03F0080376
S32D0000EA88002B0CBF01230023DBB2002B03D00A2001F01AF9F0E7084BDB6A074A43F00803D362054B1B6B044A13
S32D0000EAB043F48013136300BF2037BD4680BD00BF00100B4080B582B000AF786039607B6800221A60414B424A6A
S32D0000EAD8DA62404BDB6A03F08073002B14BF01230023DBB2002B00D0F3E73A4B0022C3F8C020384B4FF48132BC
S32D0000EB005A60364B28229A62344B4FF001125A643B689B6833491846FFF760FF2F4B5B6A03F00303002B14BFCC
S32D0000EB2801230023DBB2002B00D0F3E72C4B40F243421A602A4B40F243425A60284B4FF488629A60264B40F24B
S32D0000EB504342DA60244B40F243421A61224B40F243425A61214B03F580531B6B1F4A43F4003302F58052136389
S32D0000EB78184B4FF6FF721A63164B1B4A5A63154BDB6A144A43F00063D362124BDB6A03F00063002B14BF01236E
S32D0000EBA00023DBB2002B00D0F3E70C4B5B6A03F48033002B14BF01230023DBB2002B02D07B6801221A60054B5D
S32D0000EBC81B6B044A43F080031363002318460837BD4680BD00100B400080000160CC050000D00440007004404A
S32D0000EBF0B3007F0080B400AF064B5A6A40F207331340002B14BF01230023DBB21846BD4680BC704700100B408D
S32D0000EC1880B485B000AF7860074B1B6B7A681340FB60FB68002B00D1F6E7FB6818461437BD4680BC704700BF79
S32D0000EC4000100B4080B584B000AF78607B681B7803F03F03764A52F82330FB60FB68002B05D17B681B78002BF3
S32D0000EC6801D00123DCE0714B1B6B704A43F0800313636E4B5B6A03F00103002B14BF01230023DBB2002B00D063
S32D0000EC90F3E7684A7B685B689360FB6823F44003FB607B685B789B0503F44003FA681343FB607B685B78022B93
S32D0000ECB803D1FB6843F40013FB607B685B78042B16D1FB6803F44033B3F5003F08D1FB6823F44033FB60FB684E
S32D0000ECE043F44033FB6007E0FB6823F44033FB60FB6843F40033FB604E4B5B684D4A9BB253607B68DB68002B66
S32D0000ED082AD0FB6803F44033B3F5403F03D0FB6843F40013FB607B681B7A002B03D0FB6843F01003FB607B68B7
S32D0000ED30DB68012B03D9FB6843F02003FB607B68DB68B3F1FF3F0BD03A4B5A687B68DB681B04384913434B6065
S32D0000ED58FB6843F00203FB60344B00221A60334AFB68D3603248FFF753FF0346012B14BF01230023DBB2002B60
S32D0000ED8009D02C4B1B6B2B4A43F4702343F001031363012348E0274B1B6B03F08003002B14BF01230023DBB217
S32D0000EDA8002B07D0214B1B6B204A43F001131363012335E01D4B1B6B03F48033002B14BF01230023DBB2002B54
S32D0000EDD008D0184B1B6B174A43F0011313634FF0FF3321E0FB6803F44033002B15D0114B1A697B681A61FB6847
S32D0000EDF803F44033B3F5803F0BD10C4B5A697B685A610A4B9A697B689A61084BDA697B68DA61064B1B6B054A78
S32D0000EE2043F001031363002318461037BD4680BD485D010000100B4001000E0080B592B000AF78603960002345
S32D0000EE487B643B68BB63994B7B637B6B002B02D140F601235FE3964B3B633B6B002B02D140F60B2357E33B6B53
S32D0000EE701B68FB62FB6A002B02D140F60B234EE37B6841F20932934200F23F837B68B3F5985F08D87B68032B4F
S32D0000EE9800F01A837B68092B00F0098331E37B68A3F59853013B082B00F22B8301A252F823F000BFE1EE000015
S32D0000EEC0CDF1000029F40000E3F1000021F2000047F300008FF30000D1F20000EBF200007649786BFFF7EEFD83
S32D0000EEE878647B6C002B40F01083002387F84330002387F82B30002387F82A30002387F82930002387F842302E
S32D0000EF10002387F8283000233B7200237B720023FB6000233B7400237B6107F108031846FFF788FE0346002B59
S32D0000EF3814BF01230023DBB2002B02D001237B64E8E240F24C4000F0BFFE08233B7200237B724FF4D573FB6001
S32D0000EF6000233B7400237B6107F108031846FFF769FEF863FB6B002B09D1BA69FB689A4202D001237B64C9E24C
S32D0000EF88012387F84230012387F8283097F82830002B00F0A58037233B7200237B720023FB6000233B7400239A
S32D0000EFB07B6107F108031846FFF744FEF863FB6B002B02D001237B64A8E269233B7200237B720023FB60002389
S32D0000EFD83B7400237B6107F108031846FFF72EFE0346002B14BF01230023DBB2002B02D001237B648EE2BB692B
S32D0000F00003F44013002B6FD00023FB630A2000F05FFEFB6B0133FB6337233B7200237B720023FB6000233B74D7
S32D0000F02800237B6107F108031846FFF707FE0346002B14BF01230023DBB2002B02D001237B6428E069233B7203
S32D0000F05000237B7297F84230002B02D0184BFB6002E04FF44013FB6000233B7400237B6107F108031846FFF7CB
S32D0000F078E5FD0346002B14BF01230023DBB2002B02D001237B6406E0BB69002B03DBFB6B632B00D8B6E77B6C0A
S32D0000F0A0002B40F03882FB6B632B0BD9002387F8423019E0D0150020D41700203C5D010000003040012387F88B
S32D0000F0C8433097F84230002B0AD0002387F84230BB6903F08043002B02D0012387F8423097F82A30002B02D0BB
S32D0000F0F07B6B07221A6097F82930002B02D07B6B08221A6097F82B30002B02D07B6B04221A6097F84330002B60
S32D0000F11809D07B6B02221A6097F84230002B02D07B6B03221A6097F82B30002B0DD097F84330002B09D07B6B0B
S32D0000F14005221A6097F84230002B02D07B6B06221A60924B00221A60904B00225A608F4B00229A608D4B00225A
S32D0000F168DA608C4B00221A618A4B00225A61FB6A9A68FB6A5B6819461046FFF72BFC854B40F243421A60834BE9
S32D0000F19040F243425A60814B4FF488629A607F4B40F24342DA607D4B40F243421A617B4B40F243425A617A4B3B
S32D0000F1B803F580531B6B784A43F4003302F580521363A7E1B86BFFF739FDF863FB6B002B00F09F8102237B6496
S32D0000F1E09BE1BB6B002B02D10C237B6496E16D4BDB6A1B0A5B0003F4FF73FB63694BDB6A1B0903F00F035A1C00
S32D0000F208FB6B02FB03F3FB63FB6A9A68FB6BB2FBF3F2BB6B1A607DE1BB6B002B02D10C237B6477E1BB6B1B6891
S32D0000F230002B02D10C237B6470E1FFF7DBFC0346002B0CBF01230023DBB2002B3CD0534B00221A60514B002244
S32D0000F2585A60504B00229A604E4B0022DA604D4B00221A614B4B00225A61FB6A9A68BB6B1B6819461046FFF7BF
S32D0000F280ADFB464B40F243421A60444B40F243425A60424B4FF488629A60404B40F24342DA603E4B40F2434286
S32D0000F2A81A613C4B40F243425A613B4B03F580531B6B394A43F4003302F58052136329E140F60A237B6425E16F
S32D0000F2D0BB6B002B02D10C237B641FE1314B5B68C3F30C02BB6B1A6018E1BB6B002B02D10C237B6412E1FFF727
S32D0000F2F87DFC0346002B0CBF01230023DBB2002B19D0BB6B1B68B3F5805F02D30C237B6400E1224B5B68214AB9
S32D0000F32023F4FF5323F01F0353601E4B5A68BB6B1B68C3F30C031B4913434B60EEE040F60A237B64EAE0BB6B70
S32D0000F348002B02D10C237B64E4E0144B9B6A5B0803F00303FB63FB6B002B03D1BB6B00221A60D7E0FB6B012B39
S32D0000F37003D1BB6B01221A60D0E0FB6B102B03D1BB6B02221A60C9E005237B64C6E0BB6B002B09D10C237B6460
S32D0000F398C0E000BF00D004400070044000100B40FFF724FC0346002B0CBF01230023DBB2002B31D0BB6B1B68C7
S32D0000F3C0002B0AD1584B9B6A574A23F006039362554B554A9B6A9362A0E0BB6B1B68012B0CD1514B9B6A504A19
S32D0000F3E823F0060393624E4B9B6A4D4A43F0020393628FE0BB6B1B68022B0AD1484B9B6A474A23F0060393622A
S32D0000F410454B454A9B6A936280E005237B647DE040F60A237B6479E0BB6B002B02D10C237B6473E03C4BDB6A05
S32D0000F4383B4A43F00063D362394BDB6A03F00063002B14BF01230023DBB2002B00D0F3E7334B1B6B03F0800316
S32D0000F460002B14BF01230023DBB2002B08D02E4B1B6B2D4A43F0800313637B6B00221A60294B5B6A03F48033A2
S32D0000F488002B14BF01230023DBB2002B07D07B6B1B68002B06D17B6B01221A6002E07B6B00221A607B6B1A68C8
S32D0000F4B0BB6B1A6032E0BB6B1C221A60BB6B043304221A60BB6B08334FF41E721A6025E00220FFF7A1FB144BDB
S32D0000F4D81B6B03F4E003002B14BF01230023DBB2002B07D00E4B1B6B0D4A43F4E003136304237B640A4B1B6B2B
S32D0000F500094A43F03203136308E040F609237B6404E000BF02E000BF00E000BF7B6C18464837BD4680BD00BFDD
S32D0000F52800100B4080B489B000AF786039607B687B61364B3B613B69002B01D100235FE03B691B68022B0BD0BF
S32D0000F5503B691B68032B07D03B691B68072B03D03B691B68082B0BD12B4B5B6A03F00403002B14BF0123002385
S32D0000F578DBB2002B00D0F3E73B68FB61FB69002B3DD0FB69B3F5007F28BF4FF40073FB60FB6803339B08BB618D
S32D0000F5A0BB69002B2AD01C4B1B6B03F4E003002B14BF01230023DBB2002B09D0164B1B6B154A43F4E00343F0C4
S32D0000F5C82003136300231BE0114B5B6A03F40063002B0CBF01230023DBB2002B00D0F3E70B497B691A1D7A61FA
S32D0000F5F00A6A1A60BB69013BBB61D1E7FA69FB68D31AFB61BEE7012318462437BD4680BC704700BFD015002080
S32D0000F61800100B4080B58EB000AFB9607A601A460346FB731346BB73414B7B63FB7B002B02D1BB7B002B01D1A5
S32D0000F640042375E03D4B1B78DBB203F00103002B14BF01230023DBB2002B01D0032367E0BB68002B01D1002303
S32D0000F66862E07B6B1B7B002B02D17B685B027B60BB7B012B28D111233B7500237B757B68BB6101233B77BB7B40
S32D0000F6903B6207F11403194641F20230FFF7CEFB0346002B0CBF01230023DBB2002B38D04FF40071B868FFF70D
S32D0000F6B839FF0346002B14BF01230023DBB2002B2BD00023BB7328E012233B7500237B757B68BB6101233B7785
S32D0000F6E0BB7B3B6207F11403194641F20230FFF7A5FB0346002B0CBF01230023DBB2002B0FD0BB7B5B021946B1
S32D0000F708B868FFF70FFF0346002B14BF01230023DBB2002B01D00023BB73BB7B002B01D0012300E0002300BF2F
S32D0000F73018463837BD4680BDBC1500200000002080B487B000AF786039607B68FB603B687B617B69002B3DD029
S32D0000F7587B69B3F5007F28BF4FF400733B617A693B69D31A7B613B6903339B083B613B69002BEAD0184B1B6B64
S32D0000F78003F4E003002B14BF01230023DBB2002B0AD0134B1B6B124A43F4E00343F0100313634FF0FF3316E02D
S32D0000F7A80D4B5B6A03F48063002B0CBF01230023DBB2002B00D0F3E7FB681A1DFA60064A1B6813623B69013B81
S32D0000F7D03B61D0E7012318461C37BD4680BC704700100B4080B58EB000AFB9607A601A460346FB731346BB73DF
S32D0000F7F85D4B7B63FB7B002B02D1BB7B002B01D10423ADE0594B1B78DBB203F00103002B14BF01230023DBB275
S32D0000F820002B01D003239FE0524B1B78DBB203F00403002B14BF01230023DBB2002B01D0022391E0BB68002BB0
S32D0000F84801D100238CE07B6B1B7B002B02D17B685B027B60BB7B012B28D118233B7500237B757B68BB61002321
S32D0000F8703B77BB7B3B6207F11403194641F20230FFF7DCFA0346002B0CBF01230023DBB2002B38D04FF400714C
S32D0000F898B868FFF751FF0346002B14BF01230023DBB2002B2BD00023BB7328E019233B7500237B757B68BB6144
S32D0000F8C000233B77BB7B3B6207F11403194641F20230FFF7B3FA0346002B0CBF01230023DBB2002B0FD0BB7BA9
S32D0000F8E85B021946B868FFF727FF0346002B14BF01230023DBB2002B01D00023BB730D233B7500237B757B6BB9
S32D0000F9101B69BB6100233B7700233B6207F11403194641F20230FFF789FA0346002B14BF01230023DBB2002B02
S32D0000F93801D0012314E07A6A0D4B1340002B01D001230DE07B6A03F4F853B3F5106F00D0D5E7BB7B002B01D010
S32D0000F960012300E0002300BF18463837BD4680BDBC150020000000200880D9FF80B58CB000AF03463A60FB71A6
S32D0000F9880B46BB713A4BBB62FB79002B01D0042369E0012387F82F30364B1B78DBB203F00103002B14BF012396
S32D0000F9B00023DBB2002B01D0032358E0BB79032B50D801A252F823F0D9F90000E1F90000F1F9000001FA000004
S32D0000F9D8002387F82F3044E0BB6A9A683B681A60002387F82F303CE03B684FF400721A80002387F82F3034E074
S32D0000FA0009233B7200237B72BB6A1B69FB6000233B7400237B6107F10803194641F20230FFF70CFA0346002BE3
S32D0000FA2814BF01230023DBB2002B01D001231AE07B6A03F44003002B0CD13B6A9B0C03F07F035A1C7B6A1B0A87
S32D0000FA5003F00303013B9A403B681A60002387F82F3002E0042387F82F3097F82F3018463037BD4680BD00BFC2
S32D0000FA78BC1500200000002080B483B000AF0346FB71FB79002B01D0012302E0034B1B78DBB218460C37BD46FC
S32D0000FAA080BC70470000002080B483B000AF7860164B03F580539B6B144A43F0010302F580529363124A7B6872
S32D0000FAC89360114B05225A600F4B1B680E4A43F0010313600C4B1B6803F08003002B0CBF01230023DBB2002BBC
S32D0000FAF000D0F3E7064B1B68054A23F00103136000BF0C37BD4680BC704700BF007004400000044080B582B07B
S32D0000FB1800AF786039607B68012B07D13B684FF6FF72934202D1034800F00EF800BF0837BD4680BDDC17002025
S32D0000FB4080B500AF4FF6FF710120FFF7E3FF80BD80B483B000AF78607B6800221A707B6818460C37BD4680BC88
S32D0000FB687047000080B582B000AF78607B681B7883F00103DBB2002B21D0134B03F580531A464FF40063936210
S32D0000FB90104B4FF440721A620E4B4FF440725A620D4B1B68DA0F13445B104FF4614219460A48FEF7FDFB6420E3
S32D0000FBB800F08AF87B6801221A70012300E0002318460837BD4680BD0070044000D00440E017002000B00E403C
S32D0000FBE080B582B000AF7860084611461A460346FB700B46BB7013467B707F210E48FEF7AAFC08210C48FEF78D
S32D0000FC08A6FCFB7819460A48FEF7A1FCBB7819460748FEF79CFC7B7819460548FEF797FCFF210348FEF793FCF2
S32D0000FC3000BF0837BD4680BD00B00E4080B487B000AFF860B9607A60FB681F4AA2FB03239B09BA6813447B617D
S32D0000FC58FB681B4AA2FB031292094FF47A7101FB02F29B1AFB60FB68DB03154AA2FB03239B097A6813443B615F
S32D0000FC803B69DB0B7A6913447B613B69C3F30E033B610E4B1B687A699A4209D80B4B1B687A699A4206D1094B70
S32D0000FCA85B683A699A4201D9012300E00023002B00D0EAE700BF1C37BD4680BC704700BFD34D621000D00340B3
S32D0000FCD080B584B000AF7860074B1B68FB60064B5B68BB607B68BA68F9681846FFF7A6FF00BF1037BD4680BD12
S32D0000FCF800D0034080B584B000AF78600B4B1B68FB600A4B5B68BB600949786804F0BAFF0346184605F0A2F95E
S32D0000FD200346BA68F9681846FFF788FF00BF1037BD4680BD00D0034000007A4480B584B000AFC7E900010E4BD5
S32D0000FD481B68FB600C4B5B68BB604FF000020B4BD7E9000104F056FB02460B461046194604F012FE0346BA6820
S32D0000FD70F9681846FFF762FF00BF1037BD4680BD00D0034000408F4080B584B000AF134B1B68FB60114B5B6874
S32D0000FD98BB60F86804F0BCFA02460B46C7E90023B86804F0B5FA4FF000020B4B04F054FC02460B46D7E90001B4
S32D0000FDC004F06EF902460B46C7E90023D7E90023104619461037BD4680BD00BF00D003400000E04080B483B0D6
S32D0000FDE800AF0B4B1B684FF47A7202FB03F37B60074B5B684FF47A7202FB03F3DB0B7A6813447B607B681846F6
S32D0000FE100C37BD4680BC704700D0034080B582B000AF78600B46FB70FB781946786800F005F87B6818460837AF
S32D0000FE38BD4680BD80B483B000AF78600B46FB707B68FA781A707B681B781A46534B9B5C042B00F29E8001A286
S32D0000FE6052F823F079FE0000B3FE0000EDFE000027FF000061FF00004B4A7B681B7819464A4B53F8213040F2B1
S32D0000FE88031142F82310484B5A697B681B781946444B53F8213003F01F03012101FA03F3DB43414913404B61A6
S32D0000FEB073E0404A7B681B7819463C4B53F8213040F2031142F823103B4B5A697B681B781946364B53F8213061
S32D0000FED803F01F03012101FA03F3DB43344913404B6156E0334A7B681B7819462D4B53F8213040F2031142F81E
S32D0000FF0023102F4B5A697B681B781946274B53F8213003F01F03012101FA03F3DB43284913404B6139E0274A40
S32D0000FF287B681B7819461F4B53F8213040F2031142F82310224B5A697B681B781946194B53F8213003F01F0303
S32D0000FF50012101FA03F3DB431B4913404B611CE01A4A7B681B781946104B53F8213040F2031142F82310164BAF
S32D0000FF785A697B681B7819460A4B53F8213003F01F03012101FA03F3DB430F4913404B6100BF00BF0C37BD4671
S32D0000FFA080BC7047485E0100009004408C5E010000F00F4000A0044040F00F4000B0044080F00F4000C0044081
S32D0000FFC8C0F00F4000D0044000F10F4080B485B000AF78600023FB607B681B781A46364B9B5C042B5CD801A2F6
S32D0000FFF052F823F009000100290001004900010069000100890001002E4B1B697A68127811462D4A52F8212052
S32D0001001802F01F02012101FA02F21340FB603FE0284B1B697A6812781146254A52F8212002F01F02012101FAE4
S32D0001004002F21340FB602FE0214B1B697A68127811461D4A52F8212002F01F02012101FA02F21340FB601FE06A
S32D000100681A4B1B697A6812781146154A52F8212002F01F02012101FA02F21340FB600FE0134B1B697A681278C4
S32D0001009011460D4A52F8212002F01F02012101FA02F21340FB6000BFFB68002B14BF01230023DBB21846143799
S32D000100B8BD4680BC704700BF485E010000F00F408C5E010040F00F4080F00F40C0F00F4000F10F4080B584B0AD
S32D000100E000AF78600B46FB700B23FB73FA7BFB781946786800F094F87B6818461037BD4680BD000080B485B03E
S32D0001010800AF78607B68103B002B00DA1F335B11FB60FB68022B53D0FB68022B75DCFB68002B03D0FB68012B71
S32D0001013025D06EE0394BD3F880217B68103B594203F01F0301F01F0158BF4B42012101FA03F332491343C1F83D
S32D000101588031304B1A687B68103B594203F01F0301F01F0158BF4B42012101FA03F3294913430B6049E0274B56
S32D00010180D3F884217B68103B594203F01F0301F01F0158BF4B42012101FA03F31F491343C1F884311D4B5A68E4
S32D000101A87B68103B594203F01F0301F01F0158BF4B42012101FA03F3164913434B6024E0144BD3F888217B6868
S32D000101D0103B594203F01F0301F01F0158BF4B42012101FA03F30D491343C1F888310B4B9A687B68103B5942FE
S32D000101F803F01F0301F01F0158BF4B42012101FA03F3044913438B6000BF00BF1437BD4680BC704700E100E0ED
S32D0001022080B584B000AF78600B46FB701346BB707B68FA781A70BB78FB737B681B781A46574B9B5C042B00F26F
S32D00010248A68001A252F823F065020100B1020100FD0201009503010049030100FB7B1B0403F470234D497A68C8
S32D00010270127810464C4A52F8202043F4897343F0010341F82230494B5A697B681B781946454B53F8213003F01F
S32D000102981F03012101FA03F3DB43424913404B616720FFF72BFF72E0FB7B1B0403F470233D497A6812781046FA
S32D000102C0394A52F8202043F4897343F0010341F82230384B5A697B681B781946324B53F8213003F01F030121A2
S32D000102E801FA03F3DB43314913404B616820FFF705FF4CE0FB7B1B0403F470232C497A6812781046264A52F8A1
S32D00010310202043F4897343F0010341F82230274B5A697B681B7819461F4B53F8213003F01F03012101FA03F351
S32D00010338DB43204913404B616920FFF7DFFE26E0FB7B1B0403F470231B497A6812781046134A52F8202043F44B
S32D00010360897343F0010341F82230164B5A697B681B7819460C4B53F8213003F01F03012101FA03F3DB430F4926
S32D0001038813404B616B20FFF7B9FE00E000BF00BF1037BD4680BD00BF485E0100009004408C5E010000F00F40C6
S32D000103B000A0044040F00F4000B0044080F00F4000D0044000F10F40B0B48BB000AF224B3C1D1D460FCD0FC48E
S32D000103D895E80F0084E80F0000237B627B6A072B30DC1C4BD3F8A0207B6A9B0028333B4453F8243C012101FAB8
S32D0001040003F31340002B14BF01230023DBB2002B18D0134A7B6A52F823305A1C10497B6A41F823200D4BD3F86D
S32D00010428A0207B6A9B0028333B4453F8243C012101FA03F307491340C1F8A0307B6A01337B62CBE700BF2C37D7
S32D00010450BD46B0BC704700BF905F010000A004400C180020B0B489B000AF224B3C1D1D460FCD0FC495E80300DC
S32D0001047884E803000023FB61FB69052B30DC1C4BD3F8A020FB699B0020333B4453F81C3C012101FA03F31340FB
S32D000104A0002B14BF01230023DBB2002B18D0FB690833124A52F823200132104941F823200D4BD3F8A020FB6971
S32D000104C89B0020333B4453F81C3C012101FA03F307491340C1F8A030FB690133FB61CBE700BF2437BD46B0BC87
S32D000104F0704700BFB05F010000B004400C180020B0B48DB000AF234B3C461D460FCD0FC40FCD0FC495E807009A
S32D0001051884E807000023FB62FB6A0A2B30DC1C4BD3F8A020FB6A9B0030333B4453F8303C012101FA03F313402A
S32D00010540002B14BF01230023DBB2002B18D0FB6A0E33124A52F823200132104941F823200D4BD3F8A020FB6AC8
S32D000105689B0030333B4453F8303C012101FA03F307491340C1F8A030FB6A0133FB62CBE700BF3437BD46B0BCB0
S32D00010590704700BFC85F0100009004400C180020B0B487B000AF214B3C461D460FCD0FC42B68236000237B6127
S32D000105B87B69042B30DC1C4BD3F8A0207B699B0018333B4453F8183C012101FA03F31340002B14BF0123002370
S32D000105E0DBB2002B18D07B691933124A52F823200132104941F823200D4BD3F8A0207B699B0018333B4453F8B4
S32D00010608183C012101FA03F307491340C1F8A0307B6901337B61CBE700BF1C37BD46B0BC704700BFF45F01003F
S32D0001063000D004400C18002080B483B000AF78607B681B781A46044B53F8223018460C37BD4680BC704700BF3D
S32D000106580C18002080B483B000AF78607B681B781946044B002243F8212000BF0C37BD4680BC70470C18002043
S32D0001068080B483B000AF78600B46FB707B68FA781A707B6818460C37BD4680BC7047000080B586B000AF786056
S32D000106A87B681B781A463E4B53F822303B617B681B781A463B4B9B5CFB733B69DBB203F01F03DAB2384B1A72E9
S32D000106D03B69DBB203F01F03DAB2354B5A72354B1022C3F88820FB7B002B13D13049324800F05AFA304B1B680E
S32D000106F803F08003802B14BF01230023DBB2002B00D0F3E72A4B1B697B6112E02649294800F046FA274B1B686A
S32D0001072003F08003802B14BF01230023DBB2002B00D0F3E7214B1B697B611E4BD3F888311C4A43F01003C2F8EE
S32D0001074888311A4B9B68194A43F0100393607B699BB2184603F0DCFD0DA3D3E9002303F051FE02460B461046AA
S32D0001077019460BA3D3E9002303F072FF02460B461046194604F024F90346BB60BB6818461837BD4680BD00BF78
S32D00010798A4703D0AD7A30A4000000000E0FFEF400C5F0100685E0100EC17002000E100E000B0034000B00B4000
S32D000107C080B586B000AF78607B681B781A46234B53F822303B617B681B781A46204B9B5CFB733B69DBB203F0D1
S32D000107E81F03DAB21D4B1A723B69DBB203F01F03DAB21A4B5A72FB7B002B13D11749184800F0CEF9164B1B685D
S32D0001081003F08003802B14BF01230023DBB2002B00D0F3E7104B1B697B6112E00D490F4800F0BAF90D4B1B6844
S32D0001083803F08003802B14BF01230023DBB2002B00D0F3E7074B1B697B617B6918461837BD4680BD0C5F010005
S32D00010860685E0100FC17002000B0034000B00B4098B500AF204B5C221A701F4B10225A701D4B41F234225A80E1
S32D000108881B4B45F278629A80194B10229A71184B0722DA71164B4FF4C022DA60144B1F221A72134B1F225A72E1
S32D000108B01149124800F078F90F49114800F074F90F4800F0D2F80D4800F0CFF80A490C4800F06AF9084909483D
S32D000108D800F066F9094A064B14460FCB84E80F00064B5C221A70054B0422DA7100BF98BDEC17002000B003400B
S32D0001090000B00B40FC17002080B500AF064B1B680133054A136000F03DF8044B0122C3F80C2100BF80BD00BFB2
S32D00010928901800200070034080B500AF0C4B01221A600C4800F01AF8094B0322C3F80821094BD3F88831084A70
S32D0001095043F01003C2F88831054B9B68044A43F01003936000BF80BD00700340A086010000E100E080B483B0E7
S32D0001097800AF7860044A7B68C2F8003100BF0C37BD4680BC704700BF0070034080B584B000AF174B1B68FB60EB
S32D000109A0FB68002B24D0FB685B78FB71FB689B68184600F023F80346BB71BB79002B13D0FB685B68012B0FDD40
S32D000109C8FB689B681B69BB60BB68002B08D0BB685B685A1CBB685A60BB681B69BB60F3E7FB68DB68FB60D7E741
S32D000109F000BF1037BD4680BD8C18002080B584B000AF78607868FFF7DBFEF8607B689B695B78FB72FB7A002B10
S32D00010A180FD17B68DB68FA689A420ADD7B689B6901225A707B685B685A1C7B685A60012313E0FB7A012B0FD15F
S32D00010A407B689B68FA689A420ADA7B689B6900225A707B685B685A1C7B685A60012300E0002318461037BD4624
S32D00010A6880BD80B485B000AF78607B681B6A23F040027B681A627B685B6A23F00B027B685A627B685B6A43F0D4
S32D00010A9007027B685A627B685B6A43F080027B685A627B681B6803F08003002B0CBF01230023DBB2002B00D0F2
S32D00010AB8F3E77B685B6A03F04003402B0CBF01230023DBB2002B01D0012364E00023FB817B68DB6CFB817B68C1
S32D00010AE09B6C9AB2FB891344FB817B685B6C9AB2FB891344FB817B681B6C9AB2FB891344FB817B68DB6B9AB26E
S32D00010B08FB891344FB817B689B6B9AB2FB891344FB81FB895B08FB81FB896FEA43436FEA5343FB81FA897B6844
S32D00010B30DA620023FB817B68DB6EFB817B689B6E9AB2FB891344FB817B685B6E9AB2FB891344FB817B681B6EC9
S32D00010B589AB2FB891344FB817B68DB6D9AB2FB891344FB817B689B6D9AB2FB891344FB81FB895B08FB81FB8988
S32D00010B806FEA43436FEA5343FB81FA897B681A637B685B6A23F080027B685A62002318461437BD4680BC70477B
S32D00010BA880B483B000AF786039603B681B781A467B689A603B685B781A467B68DA603B685B881A467B689A616D
S32D00010BD03B689B881A467B68DA613B689B791A467B681A623B68DB791A467B685A623B68DA687B681A653B685C
S32D00010BF81B7A1A467B681A603B685B7A1A467B685A6000BF0C37BD4680BC704780B483B000AF78607B681846E0
S32D00010C200C37BD4680BC704780B582B000AF786039607B68012B07D13B684FF6FF72934202D10348FFF7E6FFD7
S32D00010C4800BF0837BD4680BD9418002080B500AF4FF6FF710120FFF7E3FF80BD80B483B000AF78600B46FB70FA
S32D00010C707B68FA781A707B684FF4FA725A807B6840F6C4129A807B68034A9A607B6818460C37BD4680BC70475D
S32D00010C98000080BF80B483B000AF786039603B68B3F5FA7F04DB3B6840F6C412934204DD7B684FF4FA725A80F3
S32D00010CC004E03B689AB27B685A8000BF00BF0C37BD4680BC704780B483B000AF786039603B68B3F5FA7F04DB94
S32D00010CE83B6840F6C412934204DD7B6840F6C4129A8004E03B689AB27B689A8000BF00BF0C37BD4680BC7047E8
S32D00010D102DE9904385B000AF786039604FF00001386804F051F90346002B02D04FF000033B603249386804F026
S32D00010D3865F90346002B01D02E4B3B607B689B681946386804F032F90346002B00D04BE07B683A689A607B6800
S32D00010D605C887B689B881A467B685B88D31A184603F0E2FA4FF00002214B03F071FC02460B469046994638683F
S32D00010D8803F0E8FA02460B464046494603F03AFB02460B461046194603F0F6FD03469BB22344FB81FB897B7372
S32D00010DB0FB891B0A9BB23B737F211248FDF7CBFB05211048FDF7C7FB7B681B7819460D48FDF7C1FB3B7B194699
S32D00010DD80A48FDF7BCFB7B7B19460848FDF7B7FBFF210648FDF7B3FB00BF1437BD46BDE8908300BF0000344399
S32D00010E000080664000B00E4080B582B000AF7860B84B4FF48072DA60B74B4FF480729A64B54B4FF480721A6457
S32D00010E28B34B4FF480725A64B14B4FF48072DA60B04B5B69AF4A43F008035361AE4B5B69AD4A43F48023536153
S32D00010E50AB4B5B69AA4A43F480335361A84B5B69A74A43F400335361A54B1B68A44A43F008031360A24B5B699E
S32D00010E78A14A43F0080353619E4B1B689D4A43F0080313609A4B4FF480725A62984B4FF480721A62954B4FF4DD
S32D00010EA080721A61934B4FF480725A61914B4FF480729A618F4B4FF48072DA618D4B4FF480721A638B4B4FF4EF
S32D00010EC880725A63894B4FF480729A63874B4FF48072DA63854B4FF480721A64834B4FF480725A64814B4FF4AF
S32D00010EF080729A647F4B4FF48072DA64814B4FF480721A607F4B4FF480729A607D4B4FF48072DA607B4B4FF4F2
S32D00010F1880721A61784B5B69774A43F440735361744B5B69734A43F47F2343F0F0035361734B5B69724A43F0F3
S32D00010F401D035361E221786800F034FD1D21786800F0D6FD0221786800F0D2FD0421786800F0CEFDE021786866
S32D00010F6800F024FD0121786800F0C6FD6420FEF7ABFEE021786800F019FD0321786800F0BBFD0121786800F0ED
S32D00010F9011FD0120FEF79CFEE621786800F00AFD0121786800F0ACFDA021786800F0A8FDFF21786800F0A4FD34
S32D00010FB8B021786800F0FAFC1C21786800F09CFD0F21786800F098FD0121786800F094FD3F21786800F090FDF8
S32D00010FE00021786800F08CFDEF21786800F088FD0021786800F084FDB421786800F0DAFC0121786800F07CFDAB
S32D000110089921786800F078FD0021786800F074FD4521786800F070FD0221786800F06CFD0021786800F068FD03
S32D000110300021786800F064FD0021786800F060FDB621786800F0B6FC0121786800F058FD0921786800F054FD06
S32D000110580021786800F050FD0E21786800F04CFD0221786800F048FD0021786800F044FD0021786800F040FD4B
S32D00011080BA21786800F096FC0F21786800F038FD6420FEF71DFE3A21786800F08BFC6021786800F02DFD2A21C3
S32D000110A8786800F083FC0021786800F025FD0021786800F021FD0121786800F01DFD3F21786800F019FD2B210A
S32D000110D0786800F06FFC0021786800F011FD0021786800F00DFD0021786800F009FDEF2178680BE000B00440F6
S32D000110F800A0044080F00F4040F00F4000C00440C0F00F4000F0F8FC3621786800F04EFC0021786800F0F0FC72
S32D00011120F021786800F046FC0421786800F0E8FCB821786800F03EFC0F21786800F0E0FC0121786800F0DCFC1B
S32D00011148314B1B68304A43F0080313606420FEF7BBFD3621786800F029FC0021786800F0CBFCF021786800F038
S32D0001117021FC0421786800F0C3FC0121786800F0BCF91E226F21786800F082F8AF225621786800F0DBF80021B2
S32D00011198786800F00AFA012301221C49786800F02BFA2921786800F001FC6420FEF78CFDBE21786800F0FAFBF6
S32D000111C00E21786800F09CFCF021786800F098FC0121786800F094FC0021786800F090FC0021786800F08CFC7C
S32D000111E80F21786800F088FC786800F028FA0121786800F0DAF90021786800F0AFF900BF0837BD4680BD00BF07
S32D0001121040F00F400860010080B582B000AF78607B680022DA617B6801221A627B680E225A607B681A229A6031
S32D000112387B6800225A617B6800229A617B684FF4A072DA607B68F0221A617B6800221A70786801F085F97B6824
S32D0001126018460837BD4680BD80B582B000AF7860064B1B78002B05D1044B01221A707868FFF7C2FD00BF083720
S32D00011288BD4680BDDC18002080B58AB002AFF860B9607A607E23009362237A68B968F86800F019FE40F24E7362
S32D000112B03B610023FB61FA693B699A4240DA0023BB61214AFB6913441B781A46BB69934232DAFB6901331C4A9C
S32D000112D8D35C002B06D1FF23FB75FF23BB75FF237B7512E0FB690133154AD35C012B06D1D423FB750023BB75EB
S32D0001130026237B7505E0B523FB75BA23BB75B0237B757B7DBA7DF97DF86800F0C9F80246FB68DA61F86801F09B
S32D000113281FF9F86801F058F8BB690133BB61C4E7FB690233FB61BAE700BF2037BD4680BD0400002080B58AB03F
S32D0001135002AFF860B9607A602723009395237A68B968F86800F0BBFD40F2E6333B610023FB61FA693B699A4289
S32D0001137840DA0023BB61214AFB6913441B781A46BB69934232DAFB6901331C4AD35C002B06D1FF23FB75FF23EC
S32D000113A0BB75FF237B7512E0FB690133154AD35C012B06D10023FB750023BB7500237B7505E0D423FB75002359
S32D000113C8BB7526237B757B7DBA7DF97DF86800F06BF80246FB68DA61F86801F0C1F8F86800F0FAFFBB690133A4
S32D000113F0BB61C4E7FB690233FB61BAE700BF2037BD4680BD5407002080B485B000AF78600B46FB70FB78062B50
S32D0001141829D801A252F823F0451401003D1401004B140100531401005B14010061140100691401006FF07F43AB
S32D00011440FB6014E00023FB6011E04FF47F03FB600DE04FF47F43FB6009E0FF23FB6006E04FF41903FB6002E06A
S32D00011468044BFB6000BFFB6818461437BD4680BC704700BF9999990080B584B000AF786039603B681B0CFB739F
S32D000114903B681B0ABB733B687B737B7BBA7BF97B786800F005F8034618461037BD4680BD80B487B000AF78601A
S32D000114B8084611461A460346FB700B46BB7013467B70FB789B08DBB27B61BB789B08DBB23B617B789B08DBB2EB
S32D000114E0FB607B691A033B699B011A43FB68134318461C37BD4680BC704780B582B000AF78600B46FB70FB7867
S32D0001150819467868FFF77CFF03461946786800F004F800BF0837BD4680BD80B582B000AF78603960396878684A
S32D00011530FFF7A6FF02467B681A62786801F014F8786800F075FB00BF0837BD4680BD80B582B000AF7860786821
S32D0001155800F06AFB00BF0837BD4680BD80B582B000AF78600B46FB70FB7819467868FFF747FF034619467868B1
S32D0001158000F004F800BF0837BD4680BD80B582B000AF7860396039687868FFF771FF02467B681A62786800F02D
S32D000115A8DFFF00BF0837BD4680BD80B582B000AF78600B46FB70FB7819467868FFF720FF03461946786800F00F
S32D000115D004F800BF0837BD4680BD80B582B000AF7860396039687868FFF74AFF02467B68DA61786800F0B8FF7E
S32D000115F800BF0837BD4680BD80B586B000AFF860B9607A603B6000237B617B69BA6813441B78002B0FD07B69A9
S32D00011620BA6813441B783A687968F86800F096FD7B680C337B607B6901337B61E9E700BF1837BD4680BD80B5E5
S32D0001164882B000AF7860FCF75FFE67210120FCF7CAFD00210220FCF7C6FDA0210320FCF7C2FD50210420FCF7F0
S32D00011670BEFD20210520FCF7BAFD20210620FCF7B6FD77210720FCF7B2FD00210820FCF7AEFD00210920FCF7EE
S32D00011698AAFD00210A20FCF7A6FD04210B20FCF7A2FD7B684FF0FF32DA637B684FF0FF321A6400BF0837BD4657
S32D000116C080BD00000000000080B586B000AFF860B9607A600020FCF7ACFD0346FB75FB7D03F00203002B00F059
S32D000116E8CE80FCF7BFFDE020FCF770FD0220FEF7EBFAFCF7C5FD0120FEF7E6FAFCF7B2FDA520FCF763FD0120F4
S32D00011710FEF7DEFAFCF785FD03469BB21B02BB82FCF77FFD03469AB2BB8A1343BB82FCF778FD03469BB21B0281
S32D000117387B82FCF772FD03469AB27B8A13437B82BB8A1B09BB827B8A1B097B82FCF798FDFB68DB6BB3F1FF3F57
S32D0001176034D1FB681B6CB3F1FF3F2FD1BA8AFB68DA637A8AFB681A647B8AC3F57F630F337B82BB8A184602F04D
S32D00011788D7FD49A3D3E9002302F03CFE02460B461046194603F018F90246BB681A607B8A184602F0C5FD42A334
S32D000117B0D3E9002302F02AFE02460B461046194603F006F902467B681A605AE0FB68DA6BBB8AD31A1946F86859
S32D000117D800F074F80346632B0CDCFB681A6C7B8AD31A1946F86800F069F80346632B01DC012300E00023002BD6
S32D000118002FD0BA8AFB68DA637A8AFB681A647B8AC3F57F630F337B82BB8A184602F08CFD23A3D3E9002302F05E
S32D00011828F1FD02460B461046194603F0CDF80246BB681A607B8A184602F07AFD1CA3D3E9002302F0DFFD024638
S32D000118500B461046194603F0BBF802467B681A600FE0BB68164A1A607B68154A1A60FB684FF0FF32DA63FB68FD
S32D000118784FF0FF321A64002310E001230EE0BB680D4A1A607B680C4A1A60FB684FF0FF32DA63FB684FF0FF32A4
S32D000118A01A64002318461837BD4680BDAFF30080144001144001B43F1EE0011EE001AE3F000080BF80B483B03B
S32D000118C800AF786039603B68002B02DA3B685B423B603B6818460C37BD4680BC704780B584B000AF7860396089
S32D000118F00023FB60786800F05EFAFB683A6813441B78002B12D07B6859697B689869FB683A6813441B78024667
S32D00011918786800F005FC786800F05DFAFB680133FB60E6E700BF1037BD4680BD80B582B000AF78600B46FB70F9
S32D00011940786800F038FA7B6859697B689A69FB78786800F0E9FB786800F041FA00BF0837BD4680BD80B582B014
S32D0001196800AF78603960786800F021FA39687868FFF7B5FF786800F005FA00BF0837BD4680BD80B582B000AFF7
S32D0001199078600B46FB70786800F00DFAFB7819467868FFF7C7FF786800F0F0F900BF0837BD4680BD80B483B0F1
S32D000119B800AF78600B46FB704D4B1B684C4A23F0080313604B4B1B684A4A23F480231360484B1B68474A43F4C3
S32D000119E080331360454B1B68444A23F440731360414B1B68404A23F4435323F0300313603E4B1A68FB785B02FA
S32D00011A0803F400733B4913430B603A4B1A68FB785B101B0203F48073364913430B60344B1A68FB789B101B0199
S32D00011A3003F01003304913430B602F4B1A68FB78DB105B0103F020032B4913430B602A4B1A68FB781B119B0114
S32D00011A5803F04003264913430B60254B1A68FB785B11DB01DBB2224913430B60204B1A68FB789B111B0303F472
S32D00011A8080531D4913430B601B4B1A6897F90330DB115BB25B0303F40053174913430B60164B1B68154A23F476
S32D00011AA800331360134B1B68124A43F4003313600F4B1B680E4A43F0080313600D4B1B680C4A43F440731360DB
S32D00011AD0094B1B68084A43F4435343F030031360064B1B68054A43F48023136000BF0C37BD4680BC704700BFF1
S32D00011AF880F00F4040F00F4080B483B000AF78600B46FB70464B1B68454A23F008031360444B1B68434A43F4CD
S32D00011B2080331360414B1B68404A43F4802313603E4B1B683D4A23F4407313603A4B1B68394A23F4435323F06F
S32D00011B4830031360374B1A68FB785B0203F40073344913430B60334B1A68FB785B101B0203F480732F49134399
S32D00011B700B602D4B1A68FB789B101B0103F01003294913430B60284B1A68FB78DB105B0103F0200324491343E6
S32D00011B980B60234B1A68FB781B119B0103F040031F4913430B601E4B1A68FB785B11DB01DBB21B4913430B60D1
S32D00011BC0194B1A68FB789B111B0303F48053164913430B60144B1A6897F90330DB115BB25B0303F4005310494B
S32D00011BE813430B600F4B1B680E4A23F4003313600C4B1B680B4A43F400331360084B1B68074A43F00803136037
S32D00011C10064B1B68054A23F48023136000BF0C37BD4680BC704700BF80F00F4040F00F4080B586B000AF78606E
S32D00011C387B6800225A617B6800229A617B681B6AFB60FB68FB72FB681B0ABB72FB681B0CDBB203F003037B7278
S32D00011C602A217868FFF7A6FE00217868FFF748FF00217868FFF744FF01217868FFF740FF3F217868FFF73CFF70
S32D00011C882B217868FFF792FE00217868FFF734FF00217868FFF730FF00217868FFF72CFFEF217868FFF728FFFC
S32D00011CB02C217868FFF77EFE314B1B68304A23F4407313602F4B1B682E4A23F47F2323F0F00313602C4B1B680F
S32D00011CD82B4A23F01D031360274B1A687B681B6B254913430B60254B1A687B685B6B234913430B60224B1A687F
S32D00011D007B689B6B204913430B601E4B1B681D4A23F0080313601A4B1B68194A43F48023136000237B617B6942
S32D00011D28EF2B19D800233B613B69B3F5A07F0FD2114B1B68104A23F4003313600E4B1B680D4A43F40033136070
S32D00011D503B6901333B61EBE77B6901337B61E2E7084B1B68074A43F008031360044B1B68034A23F4802313603D
S32D00011D7800BF1837BD4680BD40F00F4080F00F40C0F00F4080B483B000AF78607B689B69002B07DD7B685B6926
S32D00011DA05A1C7B685A617B6800229A6100BF0C37BD4680BC704780B582B000AF78607B685A697B685B689A42F2
S32D00011DC805DB7B6800225A617868FFF72DFF00BF0837BD4680BD80B582B000AF78607B689B695A1C7B689A61E3
S32D00011DF07B689A697B689B689A4205D17868FFF7C5FF7868FFF7D7FF00BF0837BD4680BD80B586B002AFF8604E
S32D00011E18B9607A600123009301237A68B968F86800F059F8F86800F0D7FA00BF1037BD4680BD80B485B000AFAA
S32D00011E40786039607B681B68FB603B681A687B681A603B68FA681A6000BF1437BD4680BC704780B586B002AF24
S32D00011E68F860B9607A603B60BA683B681A447B68009313467A68B968F86800F0ABF8BA683B68D118BA683B680A
S32D00011E90D0187A68BB691344009303467A68F86800F09CF8BA683B68D1187A68BB69D0187A68BB6913440093B0
S32D00011EB8BB680246F86800F08DF87A68BB691A447B680093BB68B968F86800F083F800BF1037BD4680BD80B557
S32D00011EE088B000AFF860B9607A603B60FB681B78022B03D0FB681B78032B11D17B68FB61BA6AFB691344013BB0
S32D00011F08BB61FB68DA68BB68D31A3B613B683A69D31A01337B610DE0BB68FB613A68FB691344013BBB617B68F6
S32D00011F307B61BA6A7B691344013B3B612A21F868FFF738FDFB691B0ADBB203F00F03DBB21946F868FFF7D4FD6B
S32D00011F58FB69DBB21946F868FFF7CEFDBB691B0ADBB203F00F03DBB21946F868FFF7C4FDBB69DBB21946F8689B
S32D00011F80FFF7BEFD2B21F868FFF714FD7B691B0ADBB203F00F03DBB21946F868FFF7B0FD7B69DBB21946F86814
S32D00011FA8FFF7AAFD3B691B0ADBB203F00F03DBB21946F868FFF7A0FD3B69DBB21946F868FFF79AFD2C21F86809
S32D00011FD0FFF7F0FC00BF2037BD4680BD90B58BB000AFF860B9607A603B603A68BB68D31A1946F868FFF766FCCC
S32D00011FF8F861BA6B7B68D31A1946F868FFF75EFCB861BA69FB699A42CCBF01230023FB75FB7D002B0CD03A1DC9
S32D0001202007F1080311461846FFF707FF3B4607F138011846FFF701FFBA683B689A420CDD3A4607F10803114673
S32D000120481846FFF7F6FE3B1D07F138011846FFF7F0FE3A68BB689A4206D1BB687A681946F868FFF7D1FE55E020
S32D00012070BA6B7B68D31A184602F0B4FD04463A68BB68D31A184602F0ADFD03461946204602F0B0FE03463B61C2
S32D000120987B68184602F0A2FD03467B62BB683B623B683A6A9A4235DCFB7D002B14D0786A02F050F94FF0000248
S32D000120C0184B01F0EDFF02460B461046194602F037FC03463A6A1946F868FFF799FE13E0786A02F03BF94FF0CB
S32D000120E800020E4B01F0D8FF02460B461046194602F022FC03461A46396AF868FFF784FE3969786A02F0B6FCFC
S32D0001211003467B623B6A01333B62C5E72C37BD4690BD00BF0000E03F80B584B000AFF860B9607A60FB707A6817
S32D0001213813465B0013449B00991CBA6813461B011344DA1CFB78F86800F004F800BF1037BD4680BD80B58EB0C1
S32D0001216002AFF860B9607A60FB70FB780A2B06D1F868FFF720FEF868FFF708FEF2E0FB787D2B02D8FB781F2B16
S32D0001218801D82023FB70FB78203BFB70112300930C237A68B968F868FFF79DFEFA7813469B0013446F4AD35CD9
S32D000121B03B75FA7813469B00134401336B4AD35C7B75FA7813469B0013440233674AD35CBB75FA7813469B0023
S32D000121D813440333634AD35CFB75FA7813469B00134404335F4AD35C3B760023BB62BB6A062B00F3A180F86878
S32D0001220000F050F9F86800F0B3F8002387F82F3000237B627B6A042B35DC07F114027B6A13441B7803F0010381
S32D00012228002B14BF01230023FB76FB7E002B11D097F82F3083F00103DBB2002B03D0F86800F0CAF802E0F86808
S32D0001225000F08EF8F86800F08BF80DE097F82F30002B03D0F86800F01DF902E0F86800F07FF8F86800F07CF86A
S32D00012278FB7E87F82F307B6A01337B62C6E797F82F30002B03D0F86800F008F902E0F86800F06AF8F86800F01C
S32D000122A067F8002387F82F3000233B623B6A042B42DC07F114023B6A13441B7803F00103002B14BF0123002324
S32D000122C8BB76BB7E002B11D097F82F3083F00103DBB2002B03D0F86800F07EF802E0F86800F042F8F86800F0FF
S32D000122F03FF80DE097F82F30002B03D0F86800F0D1F802E0F86800F033F8F86800F030F8BB7E87F82F3007F1B2
S32D0001231814023B6A13441B785B08D9B207F114023B6A13440A461A703B6A01333B62B9E7BB6A0133BB625AE752
S32D00012340F86800F0AFF8002387F82F300123FB61FB69232B06DCF86800F00AF8FB690133FB61F5E73037BD46D6
S32D0001236880BD00BF3C0B002080B483B000AF7860174B1B68164A43F480331360154B1B68144A23F00803136081
S32D00012390114B1B68104A43F4802313600E4B1B680D4A23F4003313600B4B1B680A4A43F400331360094B1B68C7
S32D000123B8084A43F008031360054B1B68044A23F48023136000BF0C37BD4680BC704700BF40F00F4080F00F40B0
S32D000123E080B483B000AF78602B4B1B682A4A43F480331360294B1B68284A23F008031360254B1B68244A43F484
S32D0001240880231360224B1B68214A23F440731360204B1B681F4A23F47F2323F0F00313601D4B1B681C4A23F00A
S32D000124301D031360184B1A687B685B6A164913430B60164B1A687B689B6A144913430B60134B1A687B68DB6A4C
S32D00012458114913430B600E4B1B680D4A23F4003313600B4B1B680A4A43F400331360094B1B68084A43F00803D9
S32D000124801360054B1B68044A23F48023136000BF0C37BD4680BC704740F00F4080F00F40C0F00F4080B483B0D0
S32D000124A800AF78602B4B1B682A4A43F480331360294B1B68284A23F008031360254B1B68244A43F4802313600C
S32D000124D0224B1B68214A23F440731360204B1B681F4A23F47F2323F0F00313601D4B1B681C4A23F01D031360C5
S32D000124F8184B1A687B681B6B164913430B60164B1A687B685B6B144913430B60134B1A687B689B6B1149134324
S32D000125200B600E4B1B680D4A23F4003313600B4B1B680A4A43F400331360094B1B68084A43F008031360054BFD
S32D000125481B68044A23F48023136000BF0C37BD4680BC704740F00F4080F00F40C0F00F4080B485B000AF786041
S32D000125707B681B6AFB60FB68FB72FB681B0ABB72FB681B0CDBB203F003037B727B6800225A627B6800229A6235
S32D000125987B680022DA627B6800221A637B6800225A637B6800229A637B681A6BFB7A5B0203F400731A437B68A9
S32D000125C01A637B681A6BFB7A5B101B0203F480731A437B681A637B685A6BFB7A9B101B0103F010031A437B6839
S32D000125E85A637B685A6BFB7ADB105B0103F020031A437B685A637B685A6BFB7A1B119B0103F040031A437B6835
S32D000126105A637B685A6BFB7A5B11DB01DBB21A437B685A637B685A6BFB7A9B111B0303F480531A437B685A6341
S32D000126387B685A6B97F90B30DB115BB25B0303F400531A437B685A637B685A6BBB7A9B0303F480431A437B68ED
S32D000126605A637B685A6BBB7A5B10DB039BB21A437B685A637B685A6BBB7A9B101B0403F480331A437B685A63D0
S32D000126887B685A6BBB7ADB105B0403F400331A437B685A637B685A6BBB7A1B119B0403F480231A437B685A6396
S32D000126B07B685A6BBB7A5B11DB0403F400231A437B685A637B689A6BBB7A9B1103F001031A437B689A637B68DC
S32D000126D89A6B97F90A30DB115BB29B0003F004031A437B689A637B689A6B7B7ADB0003F008031A437B689A6346
S32D000127007B689A6B7B7A5B101B0103F010031A437B689A637B68DB69FB60FB68FB72FB681B0ABB72FB681B0C72
S32D00012728DBB203F003037B727B685A6AFB7A5B0203F400731A437B685A627B685A6AFB7A5B101B0203F48073A2
S32D000127501A437B685A627B689A6AFB7A9B101B0103F010031A437B689A627B689A6AFB7ADB105B0103F0200340
S32D000127781A437B689A627B689A6AFB7A1B119B0103F040031A437B689A627B689A6AFB7A5B11DB01DBB21A43D2
S32D000127A07B689A627B689A6AFB7A9B111B0303F480531A437B689A627B689A6A97F90B30DB115BB25B0303F4FF
S32D000127C800531A437B689A627B689A6ABB7A9B0303F480431A437B689A627B689A6ABB7A5B10DB039BB21A4394
S32D000127F07B689A627B689A6ABB7A9B101B0403F480331A437B689A627B689A6ABB7ADB105B0403F400331A4322
S32D000128187B689A627B689A6ABB7A1B119B0403F480231A437B689A627B689A6ABB7A5B11DB0403F400231A4317
S32D000128407B689A627B68DA6ABB7A9B1103F001031A437B68DA627B68DA6A97F90A30DB115BB29B0003F0040390
S32D000128681A437B68DA627B68DA6A7B7ADB0003F008031A437B68DA627B68DA6A7B7A5B101B0103F010031A434E
S32D000128907B68DA6200BF1437BD4680BC704780B483B000AF78607B6818460C37BD4680BC704780B584B000AF7A
S32D000128B8F860B9607A603B60FB682033B968184602F084FFFB687A681A60FB683A689A60FB68BA691A61FB683F
S32D000128E0FA695A61FB681A68FB681B691A44FB685A60FB689A68FB685B691A44FB68DA60FB683A6A9A61FB6878
S32D000129087A6ADA61FB680022C3F8E82000BF1037BD4680BDF0B585B002AF78607B689B6919461F48FEF755FE9B
S32D000129307B6819687B689A687B6818697B685B69009303461848FFF78CFA7B68DB6919461548FEF742FE7B6871
